{
  "_format": "hh-sol-artifact-1",
  "contractName": "NavCalculator",
  "sourceName": "contracts/NavCalculator.sol",
  "abi": [
    {
      "inputs": [
        {
          "internalType": "address",
          "name": "_weth",
          "type": "address"
        },
        {
          "internalType": "address",
          "name": "_dai",
          "type": "address"
        },
        {
          "internalType": "address",
          "name": "_uniFactory",
          "type": "address"
        },
        {
          "internalType": "contract IUniswapV2Router02",
          "name": "_uniRouter",
          "type": "address"
        },
        {
          "internalType": "address",
          "name": "_sushiFactory",
          "type": "address"
        },
        {
          "internalType": "contract IUniswapV2Router02",
          "name": "_sushiRouter",
          "type": "address"
        },
        {
          "internalType": "contract IController",
          "name": "_setController",
          "type": "address"
        },
        {
          "internalType": "contract IBasicIssuanceModule",
          "name": "_basicIssuanceModule",
          "type": "address"
        }
      ],
      "stateMutability": "nonpayable",
      "type": "constructor"
    },
    {
      "inputs": [],
      "name": "DAI",
      "outputs": [
        {
          "internalType": "address",
          "name": "",
          "type": "address"
        }
      ],
      "stateMutability": "view",
      "type": "function"
    },
    {
      "inputs": [],
      "name": "ETH_ADDRESS",
      "outputs": [
        {
          "internalType": "address",
          "name": "",
          "type": "address"
        }
      ],
      "stateMutability": "view",
      "type": "function"
    },
    {
      "inputs": [],
      "name": "WETH",
      "outputs": [
        {
          "internalType": "address",
          "name": "",
          "type": "address"
        }
      ],
      "stateMutability": "view",
      "type": "function"
    },
    {
      "inputs": [],
      "name": "basicIssuanceModule",
      "outputs": [
        {
          "internalType": "contract IBasicIssuanceModule",
          "name": "",
          "type": "address"
        }
      ],
      "stateMutability": "view",
      "type": "function"
    },
    {
      "inputs": [
        {
          "internalType": "contract ISetToken",
          "name": "_setToken",
          "type": "address"
        }
      ],
      "name": "getEstimatedNav",
      "outputs": [
        {
          "internalType": "uint256",
          "name": "nav",
          "type": "uint256"
        }
      ],
      "stateMutability": "view",
      "type": "function"
    },
    {
      "inputs": [],
      "name": "setController",
      "outputs": [
        {
          "internalType": "contract IController",
          "name": "",
          "type": "address"
        }
      ],
      "stateMutability": "view",
      "type": "function"
    },
    {
      "inputs": [],
      "name": "sushiFactory",
      "outputs": [
        {
          "internalType": "address",
          "name": "",
          "type": "address"
        }
      ],
      "stateMutability": "view",
      "type": "function"
    },
    {
      "inputs": [],
      "name": "sushiRouter",
      "outputs": [
        {
          "internalType": "contract IUniswapV2Router02",
          "name": "",
          "type": "address"
        }
      ],
      "stateMutability": "view",
      "type": "function"
    },
    {
      "inputs": [],
      "name": "uniFactory",
      "outputs": [
        {
          "internalType": "address",
          "name": "",
          "type": "address"
        }
      ],
      "stateMutability": "view",
      "type": "function"
    },
    {
      "inputs": [],
      "name": "uniRouter",
      "outputs": [
        {
          "internalType": "contract IUniswapV2Router02",
          "name": "",
          "type": "address"
        }
      ],
      "stateMutability": "view",
      "type": "function"
    }
  ],
  "bytecode": "0x6101006040523480156200001257600080fd5b5060405162001c8f38038062001c8f833981810160405281019062000038919062000281565b8573ffffffffffffffffffffffffffffffffffffffff1660808173ffffffffffffffffffffffffffffffffffffffff1660601b8152505084600260006101000a81548173ffffffffffffffffffffffffffffffffffffffff021916908373ffffffffffffffffffffffffffffffffffffffff1602179055508373ffffffffffffffffffffffffffffffffffffffff1660a08173ffffffffffffffffffffffffffffffffffffffff1660601b8152505082600360006101000a81548173ffffffffffffffffffffffffffffffffffffffff021916908373ffffffffffffffffffffffffffffffffffffffff1602179055508173ffffffffffffffffffffffffffffffffffffffff1660c08173ffffffffffffffffffffffffffffffffffffffff1660601b815250508073ffffffffffffffffffffffffffffffffffffffff1660e08173ffffffffffffffffffffffffffffffffffffffff1660601b81525050876000806101000a81548173ffffffffffffffffffffffffffffffffffffffff021916908373ffffffffffffffffffffffffffffffffffffffff16021790555086600160006101000a81548173ffffffffffffffffffffffffffffffffffffffff021916908373ffffffffffffffffffffffffffffffffffffffff16021790555050505050505050506200041c565b6000815190506200023681620003b4565b92915050565b6000815190506200024d81620003ce565b92915050565b6000815190506200026481620003e8565b92915050565b6000815190506200027b8162000402565b92915050565b600080600080600080600080610100898b0312156200029f57600080fd5b6000620002af8b828c0162000225565b9850506020620002c28b828c0162000225565b9750506040620002d58b828c0162000225565b9650506060620002e88b828c016200026a565b9550506080620002fb8b828c0162000225565b94505060a06200030e8b828c016200026a565b93505060c0620003218b828c0162000253565b92505060e0620003348b828c016200023c565b9150509295985092959890939650565b6000620003518262000394565b9050919050565b6000620003658262000344565b9050919050565b6000620003798262000344565b9050919050565b60006200038d8262000344565b9050919050565b600073ffffffffffffffffffffffffffffffffffffffff82169050919050565b620003bf8162000344565b8114620003cb57600080fd5b50565b620003d98162000358565b8114620003e557600080fd5b50565b620003f3816200036c565b8114620003ff57600080fd5b50565b6200040d8162000380565b81146200041957600080fd5b50565b60805160601c60a05160601c60c05160601c60e05160601c6118226200046d6000398061020752508061027552806103255250806101e352806108db525080610251528061085652506118226000f3fe608060405234801561001057600080fd5b506004361061009e5760003560e01c8063a0e47bf611610066578063a0e47bf614610139578063a734f06e14610157578063ad5c464814610175578063e0bab4c414610193578063f316e323146101b15761009e565b806322984b24146100a357806350e2c07f146100c15780636d13582c146100df57806376771d4b146100fd5780638b2704ec1461011b575b600080fd5b6100ab6101e1565b6040516100b8919061143c565b60405180910390f35b6100c9610205565b6040516100d69190611480565b60405180910390f35b6100e7610229565b6040516100f491906114b6565b60405180910390f35b61010561024f565b604051610112919061143c565b60405180910390f35b610123610273565b604051610130919061149b565b60405180910390f35b610141610297565b60405161014e91906114b6565b60405180910390f35b61015f6102bd565b60405161016c919061143c565b60405180910390f35b61017d6102d5565b60405161018a919061143c565b60405180910390f35b61019b6102fa565b6040516101a8919061143c565b60405180910390f35b6101cb60048036038101906101c69190611052565b610320565b6040516101d891906115f1565b60405180910390f35b7f000000000000000000000000000000000000000000000000000000000000000081565b7f000000000000000000000000000000000000000000000000000000000000000081565b600360009054906101000a900473ffffffffffffffffffffffffffffffffffffffff1681565b7f000000000000000000000000000000000000000000000000000000000000000081565b7f000000000000000000000000000000000000000000000000000000000000000081565b600260009054906101000a900473ffffffffffffffffffffffffffffffffffffffff1681565b73eeeeeeeeeeeeeeeeeeeeeeeeeeeeeeeeeeeeeeee81565b6000809054906101000a900473ffffffffffffffffffffffffffffffffffffffff1681565b600160009054906101000a900473ffffffffffffffffffffffffffffffffffffffff1681565b6000817f000000000000000000000000000000000000000000000000000000000000000073ffffffffffffffffffffffffffffffffffffffff166374ebe3ec826040518263ffffffff1660e01b815260040161037c919061143c565b60206040518083038186803b15801561039457600080fd5b505afa1580156103a8573d6000803e3d6000fd5b505050506040513d601f19601f820116820180604052508101906103cc9190611029565b61040b576040517f08c379a000000000000000000000000000000000000000000000000000000000815260040161040290611511565b60405180910390fd5b60608373ffffffffffffffffffffffffffffffffffffffff166399d50d5d6040518163ffffffff1660e01b815260040160006040518083038186803b15801561045357600080fd5b505afa158015610467573d6000803e3d6000fd5b505050506040513d6000823e3d601f19601f820116820180604052508101906104909190610fe8565b9050600080905060008090506060835167ffffffffffffffff811180156104b657600080fd5b506040519080825280602002602001820160405280156104e55781602001602082028036833780820191505090505b5090506060845167ffffffffffffffff8111801561050257600080fd5b506040519080825280602002602001820160405280156105315781602001602082028036833780820191505090505b509050600080905060008973ffffffffffffffffffffffffffffffffffffffff166318160ddd6040518163ffffffff1660e01b815260040160206040518083038186803b15801561058157600080fd5b505afa158015610595573d6000803e3d6000fd5b505050506040513d601f19601f820116820180604052508101906105b991906110ca565b905060008090505b8751811015610754578781815181106105d657fe5b602002602001015173ffffffffffffffffffffffffffffffffffffffff166370a082318c6040518263ffffffff1660e01b8152600401610616919061143c565b60206040518083038186803b15801561062e57600080fd5b505afa158015610642573d6000803e3d6000fd5b505050506040513d601f19601f8201168201806040525081019061066691906110ca565b84828151811061067257fe5b6020026020010181815250506106c5670de0b6b3a764000089838151811061069657fe5b60200260200101516000809054906101000a900473ffffffffffffffffffffffffffffffffffffffff166107e9565b9050508582815181106106d457fe5b602002602001018181525050610745610736670de0b6b3a76400006107288785815181106106fe57fe5b602002602001015189868151811061071257fe5b60200260200101516109d390919063ffffffff16565b610a4390919063ffffffff16565b88610a9990919063ffffffff16565b965080806001019150506105c1565b506107ab670de0b6b3a76400006000809054906101000a900473ffffffffffffffffffffffffffffffffffffffff16600160009054906101000a900473ffffffffffffffffffffffffffffffffffffffff166107e9565b905050809550506107c585876109d390919063ffffffff16565b91506107da8183610a4390919063ffffffff16565b98505050505050505050919050565b60008060008373ffffffffffffffffffffffffffffffffffffffff168573ffffffffffffffffffffffffffffffffffffffff1614156108455785600273eeeeeeeeeeeeeeeeeeeeeeeeeeeeeeeeeeeeeeee9250925092506109ca565b60008090506000809050600061087c7f00000000000000000000000000000000000000000000000000000000000000008989610aee565b9050600073ffffffffffffffffffffffffffffffffffffffff168173ffffffffffffffffffffffffffffffffffffffff16146108d4576000806108c0838b8b610b84565b915091506108cf8b8383610c8c565b945050505b60006109017f00000000000000000000000000000000000000000000000000000000000000008a8a610aee565b9050600073ffffffffffffffffffffffffffffffffffffffff168173ffffffffffffffffffffffffffffffffffffffff161461095957600080610945838c8c610b84565b915091506109548c8383610c8c565b945050505b6000841480156109695750600083145b156109a9576040517f08c379a00000000000000000000000000000000000000000000000000000000081526004016109a0906114d1565b60405180910390fd5b828410156109ba57826001826109bf565b836000835b965096509650505050505b93509350939050565b6000808314156109e65760009050610a3d565b60008284029050828482816109f757fe5b0414610a38576040517f08c379a0000000000000000000000000000000000000000000000000000000008152600401610a2f90611591565b60405180910390fd5b809150505b92915050565b6000808211610a87576040517f08c379a0000000000000000000000000000000000000000000000000000000008152600401610a7e90611551565b60405180910390fd5b818381610a9057fe5b04905092915050565b600080828401905083811015610ae4576040517f08c379a0000000000000000000000000000000000000000000000000000000008152600401610adb906114f1565b60405180910390fd5b8091505092915050565b60008373ffffffffffffffffffffffffffffffffffffffff1663e6a4390584846040518363ffffffff1660e01b8152600401610b2b929190611457565b60206040518083038186803b158015610b4357600080fd5b505afa158015610b57573d6000803e3d6000fd5b505050506040513d601f19601f82011682018060405250810190610b7b9190610fbf565b90509392505050565b6000806000610b938585610d90565b5090506000808773ffffffffffffffffffffffffffffffffffffffff16630902f1ac6040518163ffffffff1660e01b815260040160606040518083038186803b158015610bdf57600080fd5b505afa158015610bf3573d6000803e3d6000fd5b505050506040513d601f19601f82011682018060405250810190610c17919061107b565b506dffffffffffffffffffffffffffff1691506dffffffffffffffffffffffffffff1691508273ffffffffffffffffffffffffffffffffffffffff168773ffffffffffffffffffffffffffffffffffffffff1614610c76578082610c79565b81815b8095508196505050505050935093915050565b6000808411610cd0576040517f08c379a0000000000000000000000000000000000000000000000000000000008152600401610cc7906115d1565b60405180910390fd5b600083118015610ce05750600082115b610d1f576040517f08c379a0000000000000000000000000000000000000000000000000000000008152600401610d1690611571565b60405180910390fd5b6000610d366103e5866109d390919063ffffffff16565b90506000610d4d84836109d390919063ffffffff16565b90506000610d7883610d6a6103e8896109d390919063ffffffff16565b610a9990919063ffffffff16565b9050808281610d8357fe5b0493505050509392505050565b6000808273ffffffffffffffffffffffffffffffffffffffff168473ffffffffffffffffffffffffffffffffffffffff161415610e02576040517f08c379a0000000000000000000000000000000000000000000000000000000008152600401610df990611531565b60405180910390fd5b8273ffffffffffffffffffffffffffffffffffffffff168473ffffffffffffffffffffffffffffffffffffffff1610610e3c578284610e3f565b83835b8092508193505050600073ffffffffffffffffffffffffffffffffffffffff168273ffffffffffffffffffffffffffffffffffffffff161415610eb7576040517f08c379a0000000000000000000000000000000000000000000000000000000008152600401610eae906115b1565b60405180910390fd5b9250929050565b600081519050610ecd81611762565b92915050565b600082601f830112610ee457600080fd5b8151610ef7610ef282611639565b61160c565b91508181835260208401935060208101905083856020840282011115610f1c57600080fd5b60005b83811015610f4c5781610f328882610ebe565b845260208401935060208301925050600181019050610f1f565b5050505092915050565b600081519050610f6581611779565b92915050565b600081359050610f7a81611790565b92915050565b600081519050610f8f816117a7565b92915050565b600081519050610fa4816117be565b92915050565b600081519050610fb9816117d5565b92915050565b600060208284031215610fd157600080fd5b6000610fdf84828501610ebe565b91505092915050565b600060208284031215610ffa57600080fd5b600082015167ffffffffffffffff81111561101457600080fd5b61102084828501610ed3565b91505092915050565b60006020828403121561103b57600080fd5b600061104984828501610f56565b91505092915050565b60006020828403121561106457600080fd5b600061107284828501610f6b565b91505092915050565b60008060006060848603121561109057600080fd5b600061109e86828701610f80565b93505060206110af86828701610f80565b92505060406110c086828701610faa565b9150509250925092565b6000602082840312156110dc57600080fd5b60006110ea84828501610f95565b91505092915050565b6110fc81611672565b82525050565b61110b816116f6565b82525050565b61111a8161171a565b82525050565b6111298161173e565b82525050565b600061113c602883611661565b91507f45786368616e676549737375616e63653a20494c4c49515549445f5345545f4360008301527f4f4d504f4e454e540000000000000000000000000000000000000000000000006020830152604082019050919050565b60006111a2601b83611661565b91507f536166654d6174683a206164646974696f6e206f766572666c6f7700000000006000830152602082019050919050565b60006111e2601d83611661565b91507f45786368616e676549737375616e63653a20494e56414c4944205345540000006000830152602082019050919050565b6000611222602583611661565b91507f556e697377617056324c6962726172793a204944454e544943414c5f4144445260008301527f45535345530000000000000000000000000000000000000000000000000000006020830152604082019050919050565b6000611288601a83611661565b91507f536166654d6174683a206469766973696f6e206279207a65726f0000000000006000830152602082019050919050565b60006112c8602883611661565b91507f556e697377617056324c6962726172793a20494e53554646494349454e545f4c60008301527f49515549444954590000000000000000000000000000000000000000000000006020830152604082019050919050565b600061132e602183611661565b91507f536166654d6174683a206d756c7469706c69636174696f6e206f766572666c6f60008301527f77000000000000000000000000000000000000000000000000000000000000006020830152604082019050919050565b6000611394601e83611661565b91507f556e697377617056324c6962726172793a205a45524f5f4144445245535300006000830152602082019050919050565b60006113d4602b83611661565b91507f556e697377617056324c6962726172793a20494e53554646494349454e545f4960008301527f4e5055545f414d4f554e540000000000000000000000000000000000000000006020830152604082019050919050565b611436816116dc565b82525050565b600060208201905061145160008301846110f3565b92915050565b600060408201905061146c60008301856110f3565b61147960208301846110f3565b9392505050565b60006020820190506114956000830184611102565b92915050565b60006020820190506114b06000830184611111565b92915050565b60006020820190506114cb6000830184611120565b92915050565b600060208201905081810360008301526114ea8161112f565b9050919050565b6000602082019050818103600083015261150a81611195565b9050919050565b6000602082019050818103600083015261152a816111d5565b9050919050565b6000602082019050818103600083015261154a81611215565b9050919050565b6000602082019050818103600083015261156a8161127b565b9050919050565b6000602082019050818103600083015261158a816112bb565b9050919050565b600060208201905081810360008301526115aa81611321565b9050919050565b600060208201905081810360008301526115ca81611387565b9050919050565b600060208201905081810360008301526115ea816113c7565b9050919050565b6000602082019050611606600083018461142d565b92915050565b6000604051905081810181811067ffffffffffffffff8211171561162f57600080fd5b8060405250919050565b600067ffffffffffffffff82111561165057600080fd5b602082029050602081019050919050565b600082825260208201905092915050565b600061167d826116bc565b9050919050565b60008115159050919050565b600061169b82611672565b9050919050565b60006dffffffffffffffffffffffffffff82169050919050565b600073ffffffffffffffffffffffffffffffffffffffff82169050919050565b6000819050919050565b600063ffffffff82169050919050565b600061170182611708565b9050919050565b6000611713826116bc565b9050919050565b60006117258261172c565b9050919050565b6000611737826116bc565b9050919050565b600061174982611750565b9050919050565b600061175b826116bc565b9050919050565b61176b81611672565b811461177657600080fd5b50565b61178281611684565b811461178d57600080fd5b50565b61179981611690565b81146117a457600080fd5b50565b6117b0816116a2565b81146117bb57600080fd5b50565b6117c7816116dc565b81146117d257600080fd5b50565b6117de816116e6565b81146117e957600080fd5b5056fea264697066735822122027f29a3bfe188dcfa7d88dd838ef46c3f72463dc2830b0f6311468a007d0aa7264736f6c634300060a0033",
  "linkReferences": {},
  "deployedLinkReferences": {}
}