{
  "_format": "hh-sol-artifact-1",
  "contractName": "NavCalculator",
  "sourceName": "contracts/NavCalculator.sol",
  "abi": [
    {
      "inputs": [
        {
          "internalType": "address",
          "name": "_weth",
          "type": "address"
        },
        {
          "internalType": "address",
          "name": "_dai",
          "type": "address"
        },
        {
          "internalType": "address",
          "name": "_uniFactory",
          "type": "address"
        },
        {
          "internalType": "contract IUniswapV2Router02",
          "name": "_uniRouter",
          "type": "address"
        },
        {
          "internalType": "address",
          "name": "_sushiFactory",
          "type": "address"
        },
        {
          "internalType": "contract IUniswapV2Router02",
          "name": "_sushiRouter",
          "type": "address"
        },
        {
          "internalType": "contract IController",
          "name": "_setController",
          "type": "address"
        },
        {
          "internalType": "contract IBasicIssuanceModule",
          "name": "_basicIssuanceModule",
          "type": "address"
        }
      ],
      "stateMutability": "nonpayable",
      "type": "constructor"
    },
    {
      "inputs": [],
      "name": "DAI",
      "outputs": [
        {
          "internalType": "address",
          "name": "",
          "type": "address"
        }
      ],
      "stateMutability": "view",
      "type": "function"
    },
    {
      "inputs": [],
      "name": "ETH_ADDRESS",
      "outputs": [
        {
          "internalType": "address",
          "name": "",
          "type": "address"
        }
      ],
      "stateMutability": "view",
      "type": "function"
    },
    {
      "inputs": [],
      "name": "WETH",
      "outputs": [
        {
          "internalType": "address",
          "name": "",
          "type": "address"
        }
      ],
      "stateMutability": "view",
      "type": "function"
    },
    {
      "inputs": [],
      "name": "basicIssuanceModule",
      "outputs": [
        {
          "internalType": "contract IBasicIssuanceModule",
          "name": "",
          "type": "address"
        }
      ],
      "stateMutability": "view",
      "type": "function"
    },
    {
      "inputs": [
        {
          "internalType": "contract ISetToken",
          "name": "_setToken",
          "type": "address"
        }
      ],
      "name": "getEstimatedNav",
      "outputs": [
        {
          "internalType": "uint256",
          "name": "nav",
          "type": "uint256"
        }
      ],
      "stateMutability": "view",
      "type": "function"
    },
    {
      "inputs": [],
      "name": "setController",
      "outputs": [
        {
          "internalType": "contract IController",
          "name": "",
          "type": "address"
        }
      ],
      "stateMutability": "view",
      "type": "function"
    },
    {
      "inputs": [],
      "name": "sushiFactory",
      "outputs": [
        {
          "internalType": "address",
          "name": "",
          "type": "address"
        }
      ],
      "stateMutability": "view",
      "type": "function"
    },
    {
      "inputs": [],
      "name": "sushiRouter",
      "outputs": [
        {
          "internalType": "contract IUniswapV2Router02",
          "name": "",
          "type": "address"
        }
      ],
      "stateMutability": "view",
      "type": "function"
    },
    {
      "inputs": [],
      "name": "uniFactory",
      "outputs": [
        {
          "internalType": "address",
          "name": "",
          "type": "address"
        }
      ],
      "stateMutability": "view",
      "type": "function"
    },
    {
      "inputs": [],
      "name": "uniRouter",
      "outputs": [
        {
          "internalType": "contract IUniswapV2Router02",
          "name": "",
          "type": "address"
        }
      ],
      "stateMutability": "view",
      "type": "function"
    }
  ],
  "bytecode": "0x6101006040523480156200001257600080fd5b5060405162001c9f38038062001c9f833981810160405281019062000038919062000281565b8573ffffffffffffffffffffffffffffffffffffffff1660808173ffffffffffffffffffffffffffffffffffffffff1660601b8152505084600260006101000a81548173ffffffffffffffffffffffffffffffffffffffff021916908373ffffffffffffffffffffffffffffffffffffffff1602179055508373ffffffffffffffffffffffffffffffffffffffff1660a08173ffffffffffffffffffffffffffffffffffffffff1660601b8152505082600360006101000a81548173ffffffffffffffffffffffffffffffffffffffff021916908373ffffffffffffffffffffffffffffffffffffffff1602179055508173ffffffffffffffffffffffffffffffffffffffff1660c08173ffffffffffffffffffffffffffffffffffffffff1660601b815250508073ffffffffffffffffffffffffffffffffffffffff1660e08173ffffffffffffffffffffffffffffffffffffffff1660601b81525050876000806101000a81548173ffffffffffffffffffffffffffffffffffffffff021916908373ffffffffffffffffffffffffffffffffffffffff16021790555086600160006101000a81548173ffffffffffffffffffffffffffffffffffffffff021916908373ffffffffffffffffffffffffffffffffffffffff16021790555050505050505050506200041c565b6000815190506200023681620003b4565b92915050565b6000815190506200024d81620003ce565b92915050565b6000815190506200026481620003e8565b92915050565b6000815190506200027b8162000402565b92915050565b600080600080600080600080610100898b0312156200029f57600080fd5b6000620002af8b828c0162000225565b9850506020620002c28b828c0162000225565b9750506040620002d58b828c0162000225565b9650506060620002e88b828c016200026a565b9550506080620002fb8b828c0162000225565b94505060a06200030e8b828c016200026a565b93505060c0620003218b828c0162000253565b92505060e0620003348b828c016200023c565b9150509295985092959890939650565b6000620003518262000394565b9050919050565b6000620003658262000344565b9050919050565b6000620003798262000344565b9050919050565b60006200038d8262000344565b9050919050565b600073ffffffffffffffffffffffffffffffffffffffff82169050919050565b620003bf8162000344565b8114620003cb57600080fd5b50565b620003d98162000358565b8114620003e557600080fd5b50565b620003f3816200036c565b8114620003ff57600080fd5b50565b6200040d8162000380565b81146200041957600080fd5b50565b60805160601c60a05160601c60c05160601c60e05160601c6118326200046d6000398061020752508061027552806103255250806101e352806108eb525080610251528061086652506118326000f3fe608060405234801561001057600080fd5b506004361061009e5760003560e01c8063a0e47bf611610066578063a0e47bf614610139578063a734f06e14610157578063ad5c464814610175578063e0bab4c414610193578063f316e323146101b15761009e565b806322984b24146100a357806350e2c07f146100c15780636d13582c146100df57806376771d4b146100fd5780638b2704ec1461011b575b600080fd5b6100ab6101e1565b6040516100b8919061144c565b60405180910390f35b6100c9610205565b6040516100d69190611490565b60405180910390f35b6100e7610229565b6040516100f491906114c6565b60405180910390f35b61010561024f565b604051610112919061144c565b60405180910390f35b610123610273565b60405161013091906114ab565b60405180910390f35b610141610297565b60405161014e91906114c6565b60405180910390f35b61015f6102bd565b60405161016c919061144c565b60405180910390f35b61017d6102d5565b60405161018a919061144c565b60405180910390f35b61019b6102fa565b6040516101a8919061144c565b60405180910390f35b6101cb60048036038101906101c69190611062565b610320565b6040516101d89190611601565b60405180910390f35b7f000000000000000000000000000000000000000000000000000000000000000081565b7f000000000000000000000000000000000000000000000000000000000000000081565b600360009054906101000a900473ffffffffffffffffffffffffffffffffffffffff1681565b7f000000000000000000000000000000000000000000000000000000000000000081565b7f000000000000000000000000000000000000000000000000000000000000000081565b600260009054906101000a900473ffffffffffffffffffffffffffffffffffffffff1681565b73eeeeeeeeeeeeeeeeeeeeeeeeeeeeeeeeeeeeeeee81565b6000809054906101000a900473ffffffffffffffffffffffffffffffffffffffff1681565b600160009054906101000a900473ffffffffffffffffffffffffffffffffffffffff1681565b6000817f000000000000000000000000000000000000000000000000000000000000000073ffffffffffffffffffffffffffffffffffffffff166374ebe3ec826040518263ffffffff1660e01b815260040161037c919061144c565b60206040518083038186803b15801561039457600080fd5b505afa1580156103a8573d6000803e3d6000fd5b505050506040513d601f19601f820116820180604052508101906103cc9190611039565b61040b576040517f08c379a000000000000000000000000000000000000000000000000000000000815260040161040290611521565b60405180910390fd5b60608373ffffffffffffffffffffffffffffffffffffffff166399d50d5d6040518163ffffffff1660e01b815260040160006040518083038186803b15801561045357600080fd5b505afa158015610467573d6000803e3d6000fd5b505050506040513d6000823e3d601f19601f820116820180604052508101906104909190610ff8565b9050600080905060008090506060835167ffffffffffffffff811180156104b657600080fd5b506040519080825280602002602001820160405280156104e55781602001602082028036833780820191505090505b5090506060845167ffffffffffffffff8111801561050257600080fd5b506040519080825280602002602001820160405280156105315781602001602082028036833780820191505090505b509050600080905060008973ffffffffffffffffffffffffffffffffffffffff166318160ddd6040518163ffffffff1660e01b815260040160206040518083038186803b15801561058157600080fd5b505afa158015610595573d6000803e3d6000fd5b505050506040513d601f19601f820116820180604052508101906105b991906110da565b905060008090505b8751811015610754578781815181106105d657fe5b602002602001015173ffffffffffffffffffffffffffffffffffffffff166370a082318c6040518263ffffffff1660e01b8152600401610616919061144c565b60206040518083038186803b15801561062e57600080fd5b505afa158015610642573d6000803e3d6000fd5b505050506040513d601f19601f8201168201806040525081019061066691906110da565b84828151811061067257fe5b6020026020010181815250506106c5670de0b6b3a764000089838151811061069657fe5b60200260200101516000809054906101000a900473ffffffffffffffffffffffffffffffffffffffff166107f9565b9050508582815181106106d457fe5b602002602001018181525050610745610736670de0b6b3a76400006107288785815181106106fe57fe5b602002602001015189868151811061071257fe5b60200260200101516109e390919063ffffffff16565b610a5390919063ffffffff16565b88610aa990919063ffffffff16565b965080806001019150506105c1565b506107ab670de0b6b3a76400006000809054906101000a900473ffffffffffffffffffffffffffffffffffffffff16600160009054906101000a900473ffffffffffffffffffffffffffffffffffffffff166107f9565b905050809550506107c585876109e390919063ffffffff16565b9150600081116107d65760006107ea565b6107e98183610a5390919063ffffffff16565b5b98505050505050505050919050565b60008060008373ffffffffffffffffffffffffffffffffffffffff168573ffffffffffffffffffffffffffffffffffffffff1614156108555785600273eeeeeeeeeeeeeeeeeeeeeeeeeeeeeeeeeeeeeeee9250925092506109da565b60008090506000809050600061088c7f00000000000000000000000000000000000000000000000000000000000000008989610afe565b9050600073ffffffffffffffffffffffffffffffffffffffff168173ffffffffffffffffffffffffffffffffffffffff16146108e4576000806108d0838b8b610b94565b915091506108df8b8383610c9c565b945050505b60006109117f00000000000000000000000000000000000000000000000000000000000000008a8a610afe565b9050600073ffffffffffffffffffffffffffffffffffffffff168173ffffffffffffffffffffffffffffffffffffffff161461096957600080610955838c8c610b94565b915091506109648c8383610c9c565b945050505b6000841480156109795750600083145b156109b9576040517f08c379a00000000000000000000000000000000000000000000000000000000081526004016109b0906114e1565b60405180910390fd5b828410156109ca57826001826109cf565b836000835b965096509650505050505b93509350939050565b6000808314156109f65760009050610a4d565b6000828402905082848281610a0757fe5b0414610a48576040517f08c379a0000000000000000000000000000000000000000000000000000000008152600401610a3f906115a1565b60405180910390fd5b809150505b92915050565b6000808211610a97576040517f08c379a0000000000000000000000000000000000000000000000000000000008152600401610a8e90611561565b60405180910390fd5b818381610aa057fe5b04905092915050565b600080828401905083811015610af4576040517f08c379a0000000000000000000000000000000000000000000000000000000008152600401610aeb90611501565b60405180910390fd5b8091505092915050565b60008373ffffffffffffffffffffffffffffffffffffffff1663e6a4390584846040518363ffffffff1660e01b8152600401610b3b929190611467565b60206040518083038186803b158015610b5357600080fd5b505afa158015610b67573d6000803e3d6000fd5b505050506040513d601f19601f82011682018060405250810190610b8b9190610fcf565b90509392505050565b6000806000610ba38585610da0565b5090506000808773ffffffffffffffffffffffffffffffffffffffff16630902f1ac6040518163ffffffff1660e01b815260040160606040518083038186803b158015610bef57600080fd5b505afa158015610c03573d6000803e3d6000fd5b505050506040513d601f19601f82011682018060405250810190610c27919061108b565b506dffffffffffffffffffffffffffff1691506dffffffffffffffffffffffffffff1691508273ffffffffffffffffffffffffffffffffffffffff168773ffffffffffffffffffffffffffffffffffffffff1614610c86578082610c89565b81815b8095508196505050505050935093915050565b6000808411610ce0576040517f08c379a0000000000000000000000000000000000000000000000000000000008152600401610cd7906115e1565b60405180910390fd5b600083118015610cf05750600082115b610d2f576040517f08c379a0000000000000000000000000000000000000000000000000000000008152600401610d2690611581565b60405180910390fd5b6000610d466103e5866109e390919063ffffffff16565b90506000610d5d84836109e390919063ffffffff16565b90506000610d8883610d7a6103e8896109e390919063ffffffff16565b610aa990919063ffffffff16565b9050808281610d9357fe5b0493505050509392505050565b6000808273ffffffffffffffffffffffffffffffffffffffff168473ffffffffffffffffffffffffffffffffffffffff161415610e12576040517f08c379a0000000000000000000000000000000000000000000000000000000008152600401610e0990611541565b60405180910390fd5b8273ffffffffffffffffffffffffffffffffffffffff168473ffffffffffffffffffffffffffffffffffffffff1610610e4c578284610e4f565b83835b8092508193505050600073ffffffffffffffffffffffffffffffffffffffff168273ffffffffffffffffffffffffffffffffffffffff161415610ec7576040517f08c379a0000000000000000000000000000000000000000000000000000000008152600401610ebe906115c1565b60405180910390fd5b9250929050565b600081519050610edd81611772565b92915050565b600082601f830112610ef457600080fd5b8151610f07610f0282611649565b61161c565b91508181835260208401935060208101905083856020840282011115610f2c57600080fd5b60005b83811015610f5c5781610f428882610ece565b845260208401935060208301925050600181019050610f2f565b5050505092915050565b600081519050610f7581611789565b92915050565b600081359050610f8a816117a0565b92915050565b600081519050610f9f816117b7565b92915050565b600081519050610fb4816117ce565b92915050565b600081519050610fc9816117e5565b92915050565b600060208284031215610fe157600080fd5b6000610fef84828501610ece565b91505092915050565b60006020828403121561100a57600080fd5b600082015167ffffffffffffffff81111561102457600080fd5b61103084828501610ee3565b91505092915050565b60006020828403121561104b57600080fd5b600061105984828501610f66565b91505092915050565b60006020828403121561107457600080fd5b600061108284828501610f7b565b91505092915050565b6000806000606084860312156110a057600080fd5b60006110ae86828701610f90565b93505060206110bf86828701610f90565b92505060406110d086828701610fba565b9150509250925092565b6000602082840312156110ec57600080fd5b60006110fa84828501610fa5565b91505092915050565b61110c81611682565b82525050565b61111b81611706565b82525050565b61112a8161172a565b82525050565b6111398161174e565b82525050565b600061114c602883611671565b91507f45786368616e676549737375616e63653a20494c4c49515549445f5345545f4360008301527f4f4d504f4e454e540000000000000000000000000000000000000000000000006020830152604082019050919050565b60006111b2601b83611671565b91507f536166654d6174683a206164646974696f6e206f766572666c6f7700000000006000830152602082019050919050565b60006111f2601d83611671565b91507f45786368616e676549737375616e63653a20494e56414c4944205345540000006000830152602082019050919050565b6000611232602583611671565b91507f556e697377617056324c6962726172793a204944454e544943414c5f4144445260008301527f45535345530000000000000000000000000000000000000000000000000000006020830152604082019050919050565b6000611298601a83611671565b91507f536166654d6174683a206469766973696f6e206279207a65726f0000000000006000830152602082019050919050565b60006112d8602883611671565b91507f556e697377617056324c6962726172793a20494e53554646494349454e545f4c60008301527f49515549444954590000000000000000000000000000000000000000000000006020830152604082019050919050565b600061133e602183611671565b91507f536166654d6174683a206d756c7469706c69636174696f6e206f766572666c6f60008301527f77000000000000000000000000000000000000000000000000000000000000006020830152604082019050919050565b60006113a4601e83611671565b91507f556e697377617056324c6962726172793a205a45524f5f4144445245535300006000830152602082019050919050565b60006113e4602b83611671565b91507f556e697377617056324c6962726172793a20494e53554646494349454e545f4960008301527f4e5055545f414d4f554e540000000000000000000000000000000000000000006020830152604082019050919050565b611446816116ec565b82525050565b60006020820190506114616000830184611103565b92915050565b600060408201905061147c6000830185611103565b6114896020830184611103565b9392505050565b60006020820190506114a56000830184611112565b92915050565b60006020820190506114c06000830184611121565b92915050565b60006020820190506114db6000830184611130565b92915050565b600060208201905081810360008301526114fa8161113f565b9050919050565b6000602082019050818103600083015261151a816111a5565b9050919050565b6000602082019050818103600083015261153a816111e5565b9050919050565b6000602082019050818103600083015261155a81611225565b9050919050565b6000602082019050818103600083015261157a8161128b565b9050919050565b6000602082019050818103600083015261159a816112cb565b9050919050565b600060208201905081810360008301526115ba81611331565b9050919050565b600060208201905081810360008301526115da81611397565b9050919050565b600060208201905081810360008301526115fa816113d7565b9050919050565b6000602082019050611616600083018461143d565b92915050565b6000604051905081810181811067ffffffffffffffff8211171561163f57600080fd5b8060405250919050565b600067ffffffffffffffff82111561166057600080fd5b602082029050602081019050919050565b600082825260208201905092915050565b600061168d826116cc565b9050919050565b60008115159050919050565b60006116ab82611682565b9050919050565b60006dffffffffffffffffffffffffffff82169050919050565b600073ffffffffffffffffffffffffffffffffffffffff82169050919050565b6000819050919050565b600063ffffffff82169050919050565b600061171182611718565b9050919050565b6000611723826116cc565b9050919050565b60006117358261173c565b9050919050565b6000611747826116cc565b9050919050565b600061175982611760565b9050919050565b600061176b826116cc565b9050919050565b61177b81611682565b811461178657600080fd5b50565b61179281611694565b811461179d57600080fd5b50565b6117a9816116a0565b81146117b457600080fd5b50565b6117c0816116b2565b81146117cb57600080fd5b50565b6117d7816116ec565b81146117e257600080fd5b50565b6117ee816116f6565b81146117f957600080fd5b5056fea2646970667358221220c6bfc9f8df474a6d924a0f56b122ce2ce4e21266033212182d418c242363c01764736f6c634300060a0033",
  "linkReferences": {},
  "deployedLinkReferences": {}
}