{
  "abi": [
    {
      "inputs": [
        {
          "internalType": "address",
          "name": "_weth",
          "type": "address"
        },
        {
          "internalType": "address",
          "name": "_uniFactory",
          "type": "address"
        },
        {
          "internalType": "contract IUniswapV2Router02",
          "name": "_uniRouter",
          "type": "address"
        },
        {
          "internalType": "address",
          "name": "_sushiFactory",
          "type": "address"
        },
        {
          "internalType": "contract IUniswapV2Router02",
          "name": "_sushiRouter",
          "type": "address"
        },
        {
          "internalType": "contract IController",
          "name": "_setController",
          "type": "address"
        },
        {
          "internalType": "contract IBasicIssuanceModule",
          "name": "_basicIssuanceModule",
          "type": "address"
        }
      ],
      "stateMutability": "nonpayable",
      "type": "constructor"
    },
    {
      "inputs": [],
      "name": "WETH",
      "outputs": [
        {
          "internalType": "address",
          "name": "",
          "type": "address"
        }
      ],
      "stateMutability": "view",
      "type": "function"
    },
    {
      "inputs": [],
      "name": "basicIssuanceModule",
      "outputs": [
        {
          "internalType": "contract IBasicIssuanceModule",
          "name": "",
          "type": "address"
        }
      ],
      "stateMutability": "view",
      "type": "function"
    },
    {
      "inputs": [
        {
          "internalType": "contract ISetToken",
          "name": "_setToken",
          "type": "address"
        }
      ],
      "name": "getEstimatedNav",
      "outputs": [
        {
          "internalType": "uint256",
          "name": "",
          "type": "uint256"
        }
      ],
      "stateMutability": "view",
      "type": "function"
    },
    {
      "inputs": [],
      "name": "setController",
      "outputs": [
        {
          "internalType": "contract IController",
          "name": "",
          "type": "address"
        }
      ],
      "stateMutability": "view",
      "type": "function"
    },
    {
      "inputs": [],
      "name": "sushiFactory",
      "outputs": [
        {
          "internalType": "address",
          "name": "",
          "type": "address"
        }
      ],
      "stateMutability": "view",
      "type": "function"
    },
    {
      "inputs": [],
      "name": "sushiRouter",
      "outputs": [
        {
          "internalType": "contract IUniswapV2Router02",
          "name": "",
          "type": "address"
        }
      ],
      "stateMutability": "view",
      "type": "function"
    },
    {
      "inputs": [],
      "name": "uniFactory",
      "outputs": [
        {
          "internalType": "address",
          "name": "",
          "type": "address"
        }
      ],
      "stateMutability": "view",
      "type": "function"
    },
    {
      "inputs": [],
      "name": "uniRouter",
      "outputs": [
        {
          "internalType": "contract IUniswapV2Router02",
          "name": "",
          "type": "address"
        }
      ],
      "stateMutability": "view",
      "type": "function"
    }
  ],
  "bytecode": "61010060405234801561001157600080fd5b5060405161064a38038061064a833981016040819052610030916100a0565b606095861b6001600160601b0319908116608052600180546001600160a01b03199081166001600160a01b039889161790915594871b811660a0526002805486169487169490941790935590851b821660c05290931b90921660e052600080549092169216919091179055610153565b600080600080600080600060e0888a0312156100ba578283fd5b87516100c58161013b565b60208901519097506100d68161013b565b60408901519096506100e78161013b565b60608901519095506100f88161013b565b60808901519094506101098161013b565b60a089015190935061011a8161013b565b60c089015190925061012b8161013b565b8091505092959891949750929550565b6001600160a01b038116811461015057600080fd5b50565b60805160601c60a05160601c60c05160601c60e05160601c6104b26101986000398061011152508061016852806101ad52508060ed52508061014452506104b26000f3fe608060405234801561001057600080fd5b50600436106100785760003560e01c806322984b241461007d57806350e2c07f1461009b5780636d13582c146100a357806376771d4b146100ab5780638b2704ec146100b3578063a0e47bf6146100bb578063ad5c4648146100c3578063f316e323146100cb575b600080fd5b6100856100eb565b60405161009291906103ea565b60405180910390f35b61008561010f565b610085610133565b610085610142565b610085610166565b61008561018a565b610085610199565b6100de6100d93660046103ce565b6101a8565b6040516100929190610435565b7f000000000000000000000000000000000000000000000000000000000000000081565b7f000000000000000000000000000000000000000000000000000000000000000081565b6002546001600160a01b031681565b7f000000000000000000000000000000000000000000000000000000000000000081565b7f000000000000000000000000000000000000000000000000000000000000000081565b6001546001600160a01b031681565b6000546001600160a01b031681565b6000817f00000000000000000000000000000000000000000000000000000000000000006001600160a01b03166374ebe3ec826040518263ffffffff1660e01b81526004016101f791906103ea565b60206040518083038186803b15801561020f57600080fd5b505afa158015610223573d6000803e3d6000fd5b505050506040513d601f19601f8201168201806040525081019061024791906103a7565b61026c5760405162461bcd60e51b8152600401610263906103fe565b60405180910390fd5b6060836001600160a01b03166399d50d5d6040518163ffffffff1660e01b815260040160006040518083038186803b1580156102a757600080fd5b505afa1580156102bb573d6000803e3d6000fd5b505050506040513d6000823e601f3d908101601f191682016040526102e391908101906102fd565b90505050919050565b80516102f781610464565b92915050565b6000602080838503121561030f578182fd5b82516001600160401b0380821115610325578384fd5b81850186601f820112610336578485fd5b8051925081831115610346578485fd5b838302915061035684830161043e565b8381528481019082860184840187018a1015610370578788fd5b8794505b8585101561039a576103868a826102ec565b835260019490940193918601918601610374565b5098975050505050505050565b6000602082840312156103b8578081fd5b815180151581146103c7578182fd5b9392505050565b6000602082840312156103df578081fd5b81356103c781610464565b6001600160a01b0391909116815260200190565b6020808252601d908201527f45786368616e676549737375616e63653a20494e56414c494420534554000000604082015260600190565b90815260200190565b6040518181016001600160401b038111828210171561045c57600080fd5b604052919050565b6001600160a01b038116811461047957600080fd5b5056fea2646970667358221220ea81da0059073657e2a024eca83ccfffb952adbe4931670a76a2e3af5939d48964736f6c634300060a0033",
  "bytecodeSha1": "5905a5435201d16d3126084b9e0942899fbaddc0",
  "compiler": {
    "evm_version": "istanbul",
    "optimizer": {
      "enabled": true,
      "runs": 1
    },
    "version": "0.6.10+commit.00c0fcaf"
  },
  "contractName": "NavCalculator",
  "language": "Solidity",
  "natspec": {
    "methods": {}
  },
  "opcodes": "PUSH1 0x80 PUSH1 0x40 MSTORE CALLVALUE DUP1 ISZERO PUSH2 0x10 JUMPI PUSH1 0x0 DUP1 REVERT JUMPDEST POP PUSH1 0x4 CALLDATASIZE LT PUSH2 0x78 JUMPI PUSH1 0x0 CALLDATALOAD PUSH1 0xE0 SHR DUP1 PUSH4 0x22984B24 EQ PUSH2 0x7D JUMPI DUP1 PUSH4 0x50E2C07F EQ PUSH2 0x9B JUMPI DUP1 PUSH4 0x6D13582C EQ PUSH2 0xA3 JUMPI DUP1 PUSH4 0x76771D4B EQ PUSH2 0xAB JUMPI DUP1 PUSH4 0x8B2704EC EQ PUSH2 0xB3 JUMPI DUP1 PUSH4 0xA0E47BF6 EQ PUSH2 0xBB JUMPI DUP1 PUSH4 0xAD5C4648 EQ PUSH2 0xC3 JUMPI DUP1 PUSH4 0xF316E323 EQ PUSH2 0xCB JUMPI JUMPDEST PUSH1 0x0 DUP1 REVERT JUMPDEST PUSH2 0x85 PUSH2 0xEB JUMP JUMPDEST PUSH1 0x40 MLOAD PUSH2 0x92 SWAP2 SWAP1 PUSH2 0x3EA JUMP JUMPDEST PUSH1 0x40 MLOAD DUP1 SWAP2 SUB SWAP1 RETURN JUMPDEST PUSH2 0x85 PUSH2 0x10F JUMP JUMPDEST PUSH2 0x85 PUSH2 0x133 JUMP JUMPDEST PUSH2 0x85 PUSH2 0x142 JUMP JUMPDEST PUSH2 0x85 PUSH2 0x166 JUMP JUMPDEST PUSH2 0x85 PUSH2 0x18A JUMP JUMPDEST PUSH2 0x85 PUSH2 0x199 JUMP JUMPDEST PUSH2 0xDE PUSH2 0xD9 CALLDATASIZE PUSH1 0x4 PUSH2 0x3CE JUMP JUMPDEST PUSH2 0x1A8 JUMP JUMPDEST PUSH1 0x40 MLOAD PUSH2 0x92 SWAP2 SWAP1 PUSH2 0x435 JUMP JUMPDEST PUSH32 0x0 DUP2 JUMP JUMPDEST PUSH32 0x0 DUP2 JUMP JUMPDEST PUSH1 0x2 SLOAD PUSH1 0x1 PUSH1 0x1 PUSH1 0xA0 SHL SUB AND DUP2 JUMP JUMPDEST PUSH32 0x0 DUP2 JUMP JUMPDEST PUSH32 0x0 DUP2 JUMP JUMPDEST PUSH1 0x1 SLOAD PUSH1 0x1 PUSH1 0x1 PUSH1 0xA0 SHL SUB AND DUP2 JUMP JUMPDEST PUSH1 0x0 SLOAD PUSH1 0x1 PUSH1 0x1 PUSH1 0xA0 SHL SUB AND DUP2 JUMP JUMPDEST PUSH1 0x0 DUP2 PUSH32 0x0 PUSH1 0x1 PUSH1 0x1 PUSH1 0xA0 SHL SUB AND PUSH4 0x74EBE3EC DUP3 PUSH1 0x40 MLOAD DUP3 PUSH4 0xFFFFFFFF AND PUSH1 0xE0 SHL DUP2 MSTORE PUSH1 0x4 ADD PUSH2 0x1F7 SWAP2 SWAP1 PUSH2 0x3EA JUMP JUMPDEST PUSH1 0x20 PUSH1 0x40 MLOAD DUP1 DUP4 SUB DUP2 DUP7 DUP1 EXTCODESIZE ISZERO DUP1 ISZERO PUSH2 0x20F JUMPI PUSH1 0x0 DUP1 REVERT JUMPDEST POP GAS STATICCALL ISZERO DUP1 ISZERO PUSH2 0x223 JUMPI RETURNDATASIZE PUSH1 0x0 DUP1 RETURNDATACOPY RETURNDATASIZE PUSH1 0x0 REVERT JUMPDEST POP POP POP POP PUSH1 0x40 MLOAD RETURNDATASIZE PUSH1 0x1F NOT PUSH1 0x1F DUP3 ADD AND DUP3 ADD DUP1 PUSH1 0x40 MSTORE POP DUP2 ADD SWAP1 PUSH2 0x247 SWAP2 SWAP1 PUSH2 0x3A7 JUMP JUMPDEST PUSH2 0x26C JUMPI PUSH1 0x40 MLOAD PUSH3 0x461BCD PUSH1 0xE5 SHL DUP2 MSTORE PUSH1 0x4 ADD PUSH2 0x263 SWAP1 PUSH2 0x3FE JUMP JUMPDEST PUSH1 0x40 MLOAD DUP1 SWAP2 SUB SWAP1 REVERT JUMPDEST PUSH1 0x60 DUP4 PUSH1 0x1 PUSH1 0x1 PUSH1 0xA0 SHL SUB AND PUSH4 0x99D50D5D PUSH1 0x40 MLOAD DUP2 PUSH4 0xFFFFFFFF AND PUSH1 0xE0 SHL DUP2 MSTORE PUSH1 0x4 ADD PUSH1 0x0 PUSH1 0x40 MLOAD DUP1 DUP4 SUB DUP2 DUP7 DUP1 EXTCODESIZE ISZERO DUP1 ISZERO PUSH2 0x2A7 JUMPI PUSH1 0x0 DUP1 REVERT JUMPDEST POP GAS STATICCALL ISZERO DUP1 ISZERO PUSH2 0x2BB JUMPI RETURNDATASIZE PUSH1 0x0 DUP1 RETURNDATACOPY RETURNDATASIZE PUSH1 0x0 REVERT JUMPDEST POP POP POP POP PUSH1 0x40 MLOAD RETURNDATASIZE PUSH1 0x0 DUP3 RETURNDATACOPY PUSH1 0x1F RETURNDATASIZE SWAP1 DUP2 ADD PUSH1 0x1F NOT AND DUP3 ADD PUSH1 0x40 MSTORE PUSH2 0x2E3 SWAP2 SWAP1 DUP2 ADD SWAP1 PUSH2 0x2FD JUMP JUMPDEST SWAP1 POP POP POP SWAP2 SWAP1 POP JUMP JUMPDEST DUP1 MLOAD PUSH2 0x2F7 DUP2 PUSH2 0x464 JUMP JUMPDEST SWAP3 SWAP2 POP POP JUMP JUMPDEST PUSH1 0x0 PUSH1 0x20 DUP1 DUP4 DUP6 SUB SLT ISZERO PUSH2 0x30F JUMPI DUP2 DUP3 REVERT JUMPDEST DUP3 MLOAD PUSH1 0x1 PUSH1 0x1 PUSH1 0x40 SHL SUB DUP1 DUP3 GT ISZERO PUSH2 0x325 JUMPI DUP4 DUP5 REVERT JUMPDEST DUP2 DUP6 ADD DUP7 PUSH1 0x1F DUP3 ADD SLT PUSH2 0x336 JUMPI DUP5 DUP6 REVERT JUMPDEST DUP1 MLOAD SWAP3 POP DUP2 DUP4 GT ISZERO PUSH2 0x346 JUMPI DUP5 DUP6 REVERT JUMPDEST DUP4 DUP4 MUL SWAP2 POP PUSH2 0x356 DUP5 DUP4 ADD PUSH2 0x43E JUMP JUMPDEST DUP4 DUP2 MSTORE DUP5 DUP2 ADD SWAP1 DUP3 DUP7 ADD DUP5 DUP5 ADD DUP8 ADD DUP11 LT ISZERO PUSH2 0x370 JUMPI DUP8 DUP9 REVERT JUMPDEST DUP8 SWAP5 POP JUMPDEST DUP6 DUP6 LT ISZERO PUSH2 0x39A JUMPI PUSH2 0x386 DUP11 DUP3 PUSH2 0x2EC JUMP JUMPDEST DUP4 MSTORE PUSH1 0x1 SWAP5 SWAP1 SWAP5 ADD SWAP4 SWAP2 DUP7 ADD SWAP2 DUP7 ADD PUSH2 0x374 JUMP JUMPDEST POP SWAP9 SWAP8 POP POP POP POP POP POP POP POP JUMP JUMPDEST PUSH1 0x0 PUSH1 0x20 DUP3 DUP5 SUB SLT ISZERO PUSH2 0x3B8 JUMPI DUP1 DUP2 REVERT JUMPDEST DUP2 MLOAD DUP1 ISZERO ISZERO DUP2 EQ PUSH2 0x3C7 JUMPI DUP2 DUP3 REVERT JUMPDEST SWAP4 SWAP3 POP POP POP JUMP JUMPDEST PUSH1 0x0 PUSH1 0x20 DUP3 DUP5 SUB SLT ISZERO PUSH2 0x3DF JUMPI DUP1 DUP2 REVERT JUMPDEST DUP2 CALLDATALOAD PUSH2 0x3C7 DUP2 PUSH2 0x464 JUMP JUMPDEST PUSH1 0x1 PUSH1 0x1 PUSH1 0xA0 SHL SUB SWAP2 SWAP1 SWAP2 AND DUP2 MSTORE PUSH1 0x20 ADD SWAP1 JUMP JUMPDEST PUSH1 0x20 DUP1 DUP3 MSTORE PUSH1 0x1D SWAP1 DUP3 ADD MSTORE PUSH32 0x45786368616E676549737375616E63653A20494E56414C494420534554000000 PUSH1 0x40 DUP3 ADD MSTORE PUSH1 0x60 ADD SWAP1 JUMP JUMPDEST SWAP1 DUP2 MSTORE PUSH1 0x20 ADD SWAP1 JUMP JUMPDEST PUSH1 0x40 MLOAD DUP2 DUP2 ADD PUSH1 0x1 PUSH1 0x1 PUSH1 0x40 SHL SUB DUP2 GT DUP3 DUP3 LT OR ISZERO PUSH2 0x45C JUMPI PUSH1 0x0 DUP1 REVERT JUMPDEST PUSH1 0x40 MSTORE SWAP2 SWAP1 POP JUMP JUMPDEST PUSH1 0x1 PUSH1 0x1 PUSH1 0xA0 SHL SUB DUP2 AND DUP2 EQ PUSH2 0x479 JUMPI PUSH1 0x0 DUP1 REVERT JUMPDEST POP JUMP INVALID LOG2 PUSH5 0x6970667358 0x22 SLT KECCAK256 0xEA DUP2 0xDA STOP MSIZE SMOD CALLDATASIZE JUMPI 0xE2 LOG0 0x24 0xEC 0xA8 EXTCODECOPY 0xCF SELFDESTRUCT 0xB9 MSTORE 0xAD 0xBE 0x49 BALANCE PUSH8 0xA76A2E3AF5939D4 DUP10 PUSH5 0x736F6C6343 STOP MOD EXP STOP CALLER ",
  "sha1": "21c205360da9650419df4a27e0ce7115d0f721bd",
  "source": "// SPDX-License-Identifier: MIT\n\npragma solidity 0.6.10;\npragma experimental ABIEncoderV2;\n\nimport {Address} from \"@openzeppelin/contracts/utils/Address.sol\";\nimport {IERC20} from \"@openzeppelin/contracts/token/ERC20/IERC20.sol\";\nimport {IUniswapV2Factory} from \"@uniswap/v2-core/contracts/interfaces/IUniswapV2Factory.sol\";\nimport {IUniswapV2Router02} from \"@uniswap/v2-periphery/contracts/interfaces/IUniswapV2Router02.sol\";\nimport {Math} from \"@openzeppelin/contracts/math/Math.sol\";\nimport {SafeERC20} from \"@openzeppelin/contracts/token/ERC20/SafeERC20.sol\";\nimport {SafeMath} from \"@openzeppelin/contracts/math/SafeMath.sol\";\n\nimport {IBasicIssuanceModule} from \"./interfaces/IBasicIssuanceModule.sol\";\nimport {IController} from \"./interfaces/IController.sol\";\nimport {ISetToken} from \"./interfaces/ISetToken.sol\";\nimport {IWETH} from \"./interfaces/IWETH.sol\";\nimport {PreciseUnitMath} from \"./lib/PreciseUnitMath.sol\";\nimport {UniSushiV2Library} from \"../../external/contracts/UniSushiV2Library.sol\";\n\ncontract NavCalculator {\n    using Address for address payable;\n    using SafeMath for uint256;\n    using PreciseUnitMath for uint256;\n    using SafeERC20 for IERC20;\n    using SafeERC20 for ISetToken;\n    /* ============ State Variables ============ */\n\n    address public WETH;\n    IUniswapV2Router02 public uniRouter;\n    IUniswapV2Router02 public sushiRouter;\n\n    address public immutable uniFactory;\n    address public immutable sushiFactory;\n\n    IController public immutable setController;\n    IBasicIssuanceModule public immutable basicIssuanceModule;\n\n    /* ============ Modifiers ============ */\n\n    modifier isSetToken(ISetToken _setToken) {\n        require(\n            setController.isSet(address(_setToken)),\n            \"ExchangeIssuance: INVALID SET\"\n        );\n        _;\n    }\n\n    /* ============ Constructor ============ */\n\n    constructor(\n        address _weth,\n        address _uniFactory,\n        IUniswapV2Router02 _uniRouter,\n        address _sushiFactory,\n        IUniswapV2Router02 _sushiRouter,\n        IController _setController,\n        IBasicIssuanceModule _basicIssuanceModule\n    ) public {\n        uniFactory = _uniFactory;\n        uniRouter = _uniRouter;\n\n        sushiFactory = _sushiFactory;\n        sushiRouter = _sushiRouter;\n\n        setController = _setController;\n        basicIssuanceModule = _basicIssuanceModule;\n\n        WETH = _weth;\n    }\n\n    function getEstimatedNav(ISetToken _setToken)\n        external\n        view\n        isSetToken(_setToken)\n        returns (uint256)\n    {\n        // get components\n        address[] memory components = _setToken.getComponents();\n\n        // get total supply\n\n        // get price in ETH per component\n    }\n}\n",
  "sourcePath": "contracts/NavCalculator.sol",
  "type": "contract"
}